{
  "_format": "hh-sol-artifact-1",
  "contractName": "Lottery",
  "sourceName": "contracts/Lottery.sol",
  "abi": [
    {
      "inputs": [],
      "stateMutability": "nonpayable",
      "type": "constructor"
    },
    {
      "anonymous": false,
      "inputs": [
        {
          "indexed": false,
          "internalType": "address",
          "name": "winner",
          "type": "address"
        },
        {
          "indexed": false,
          "internalType": "uint256",
          "name": "amount",
          "type": "uint256"
        }
      ],
      "name": "WinnerDeclared",
      "type": "event"
    },
    {
      "inputs": [],
      "name": "balanceOf",
      "outputs": [
        {
          "internalType": "uint256",
          "name": "",
          "type": "uint256"
        }
      ],
      "stateMutability": "view",
      "type": "function"
    },
    {
      "inputs": [],
      "name": "declareWinner",
      "outputs": [],
      "stateMutability": "payable",
      "type": "function"
    },
    {
      "inputs": [],
      "name": "genRandom",
      "outputs": [
        {
          "internalType": "uint256",
          "name": "",
          "type": "uint256"
        }
      ],
      "stateMutability": "view",
      "type": "function"
    },
    {
      "inputs": [],
      "name": "manager",
      "outputs": [
        {
          "internalType": "address",
          "name": "",
          "type": "address"
        }
      ],
      "stateMutability": "view",
      "type": "function"
    },
    {
      "stateMutability": "payable",
      "type": "receive"
    }
  ],
  "bytecode": "0x608060405234801561001057600080fd5b50336000806101000a81548173ffffffffffffffffffffffffffffffffffffffff021916908373ffffffffffffffffffffffffffffffffffffffff1602179055506108e4806100606000396000f3fe6080604052600436106100435760003560e01c806314034bd2146100f8578063481c6a751461010257806366a30cb61461012d578063722713f714610158576100f3565b366100f357633b9aca00341461008e576040517f08c379a0000000000000000000000000000000000000000000000000000000008152600401610085906106e5565b60405180910390fd5b6001339080600181540180825580915050600190039060005260206000200160009091909190916101000a81548173ffffffffffffffffffffffffffffffffffffffff021916908373ffffffffffffffffffffffffffffffffffffffff160217905550005b600080fd5b610100610183565b005b34801561010e57600080fd5b506101176103ee565b6040516101249190610661565b60405180910390f35b34801561013957600080fd5b50610142610412565b60405161014f9190610705565b60405180910390f35b34801561016457600080fd5b5061016d61044a565b60405161017a9190610705565b60405180910390f35b60008054906101000a900473ffffffffffffffffffffffffffffffffffffffff1673ffffffffffffffffffffffffffffffffffffffff163373ffffffffffffffffffffffffffffffffffffffff1614610211576040517f08c379a0000000000000000000000000000000000000000000000000000000008152600401610208906106c5565b60405180910390fd5b600360018054905011610259576040517f08c379a0000000000000000000000000000000000000000000000000000000008152600401610250906106a5565b60405180910390fd5b60006001808054905061026a610412565b61027491906107ad565b815481106102ab577f4e487b7100000000000000000000000000000000000000000000000000000000600052603260045260246000fd5b9060005260206000200160009054906101000a900473ffffffffffffffffffffffffffffffffffffffff16905060006102e261044a565b90508173ffffffffffffffffffffffffffffffffffffffff166108fc829081150290604051600060405180830381858888f1935050505015801561032a573d6000803e3d6000fd5b50600067ffffffffffffffff81111561036c577f4e487b7100000000000000000000000000000000000000000000000000000000600052604160045260246000fd5b60405190808252806020026020018201604052801561039a5781602001602082028036833780820191505090505b50600190805190602001906103b09291906104e1565b507f3cf1af53e79884a92609ce59db1ec9f584d88e2d14c8eaba43a21db81318301e82826040516103e292919061067c565b60405180910390a15050565b60008054906101000a900473ffffffffffffffffffffffffffffffffffffffff1681565b60004260018054905060405160200161042c929190610635565b6040516020818303038152906040528051906020012060001c905090565b60008060009054906101000a900473ffffffffffffffffffffffffffffffffffffffff1673ffffffffffffffffffffffffffffffffffffffff163373ffffffffffffffffffffffffffffffffffffffff16146104db576040517f08c379a00000000000000000000000000000000000000000000000000000000081526004016104d2906106c5565b60405180910390fd5b47905090565b82805482825590600052602060002090810192821561055a579160200282015b828111156105595782518260006101000a81548173ffffffffffffffffffffffffffffffffffffffff021916908373ffffffffffffffffffffffffffffffffffffffff16021790555091602001919060010190610501565b5b509050610567919061056b565b5090565b5b8082111561058457600081600090555060010161056c565b5090565b6105918161076d565b82525050565b6105a081610731565b82525050565b60006105b3601883610720565b91506105be8261080d565b602082019050919050565b60006105d6600d83610720565b91506105e182610836565b602082019050919050565b60006105f9602183610720565b91506106048261085f565b604082019050919050565b61061881610763565b82525050565b61062f61062a82610763565b6107a3565b82525050565b6000610641828561061e565b602082019150610651828461061e565b6020820191508190509392505050565b60006020820190506106766000830184610597565b92915050565b60006040820190506106916000830185610588565b61069e602083018461060f565b9392505050565b600060208201905081810360008301526106be816105a6565b9050919050565b600060208201905081810360008301526106de816105c9565b9050919050565b600060208201905081810360008301526106fe816105ec565b9050919050565b600060208201905061071a600083018461060f565b92915050565b600082825260208201905092915050565b600061073c82610743565b9050919050565b600073ffffffffffffffffffffffffffffffffffffffff82169050919050565b6000819050919050565b60006107788261077f565b9050919050565b600061078a82610791565b9050919050565b600061079c82610743565b9050919050565b6000819050919050565b60006107b882610763565b91506107c383610763565b9250826107d3576107d26107de565b5b828206905092915050565b7f4e487b7100000000000000000000000000000000000000000000000000000000600052601260045260246000fd5b7f4e6f7420656e6f756768207061727469636970616e7473210000000000000000600082015250565b7f556e617574686f72697a65642100000000000000000000000000000000000000600082015250565b7f506c65617365207061792031206777656920746f20706172746963697061746560008201527f210000000000000000000000000000000000000000000000000000000000000060208201525056fea26469706673582212204b063fcc61deca78978bbc4d307d07eca940fecce38046c3fbd68c841c5eef3564736f6c63430008040033",
  "linkReferences": {},
  "deployedLinkReferences": {}
}