{
  "_format": "hh-sol-artifact-1",
  "contractName": "Lottery",
  "sourceName": "contracts/Lottery.sol",
  "abi": [
    {
      "inputs": [],
      "stateMutability": "nonpayable",
      "type": "constructor"
    },
    {
      "inputs": [],
      "name": "Lottery__NotEnoughETH",
      "type": "error"
    },
    {
      "inputs": [],
      "name": "Lottery__NotEnoughParticipants",
      "type": "error"
    },
    {
      "inputs": [],
      "name": "Lottery__UnauthorizedAccess",
      "type": "error"
    },
    {
      "anonymous": false,
      "inputs": [
        {
          "indexed": false,
          "internalType": "address",
          "name": "winner",
          "type": "address"
        },
        {
          "indexed": false,
          "internalType": "uint256",
          "name": "amount",
          "type": "uint256"
        }
      ],
      "name": "WinnerDeclared",
      "type": "event"
    },
    {
      "inputs": [],
      "name": "balanceOf",
      "outputs": [
        {
          "internalType": "uint256",
          "name": "",
          "type": "uint256"
        }
      ],
      "stateMutability": "view",
      "type": "function"
    },
    {
      "inputs": [],
      "name": "declareWinner",
      "outputs": [],
      "stateMutability": "payable",
      "type": "function"
    },
    {
      "inputs": [],
      "name": "manager",
      "outputs": [
        {
          "internalType": "address",
          "name": "",
          "type": "address"
        }
      ],
      "stateMutability": "view",
      "type": "function"
    },
    {
      "inputs": [],
      "name": "participate",
      "outputs": [],
      "stateMutability": "payable",
      "type": "function"
    }
  ],
  "bytecode": "0x60a060405234801561001057600080fd5b503373ffffffffffffffffffffffffffffffffffffffff1660808173ffffffffffffffffffffffffffffffffffffffff1660601b8152505060805160601c61074c6100736000396000818160b0015281816102c001526102e8015261074c6000f3fe60806040526004361061003f5760003560e01c806314034bd214610044578063481c6a751461004e578063722713f714610079578063d11711a2146100a4575b600080fd5b61004c6100ae565b005b34801561005a57600080fd5b506100636102bc565b6040516100709190610534565b60405180910390f35b34801561008557600080fd5b5061008e6102e4565b60405161009b9190610568565b60405180910390f35b6100ac610371565b005b7f000000000000000000000000000000000000000000000000000000000000000073ffffffffffffffffffffffffffffffffffffffff163373ffffffffffffffffffffffffffffffffffffffff1614610133576040517f0bcf688800000000000000000000000000000000000000000000000000000000815260040160405180910390fd5b60036000805490501015610173576040517f8c92283f00000000000000000000000000000000000000000000000000000000815260040160405180910390fd5b600080600080549050610184610414565b61018e91906105b2565b8154811061019f5761019e6105e3565b5b9060005260206000200160009054906101000a900473ffffffffffffffffffffffffffffffffffffffff16905060006101d66102e4565b90508173ffffffffffffffffffffffffffffffffffffffff166108fc829081150290604051600060405180830381858888f1935050505015801561021e573d6000803e3d6000fd5b50600067ffffffffffffffff81111561023a57610239610612565b5b6040519080825280602002602001820160405280156102685781602001602082028036833780820191505090505b506000908051906020019061027e92919061044c565b507f3cf1af53e79884a92609ce59db1ec9f584d88e2d14c8eaba43a21db81318301e82826040516102b09291906106a0565b60405180910390a15050565b60007f0000000000000000000000000000000000000000000000000000000000000000905090565b60007f000000000000000000000000000000000000000000000000000000000000000073ffffffffffffffffffffffffffffffffffffffff163373ffffffffffffffffffffffffffffffffffffffff161461036b576040517f0bcf688800000000000000000000000000000000000000000000000000000000815260040160405180910390fd5b47905090565b633b9aca003410156103af576040517f6844f56200000000000000000000000000000000000000000000000000000000815260040160405180910390fd5b6000339080600181540180825580915050600190039060005260206000200160009091909190916101000a81548173ffffffffffffffffffffffffffffffffffffffff021916908373ffffffffffffffffffffffffffffffffffffffff160217905550565b60004260008054905060405160200161042e9291906106ea565b6040516020818303038152906040528051906020012060001c905090565b8280548282559060005260206000209081019282156104c5579160200282015b828111156104c45782518260006101000a81548173ffffffffffffffffffffffffffffffffffffffff021916908373ffffffffffffffffffffffffffffffffffffffff1602179055509160200191906001019061046c565b5b5090506104d291906104d6565b5090565b5b808211156104ef5760008160009055506001016104d7565b5090565b600073ffffffffffffffffffffffffffffffffffffffff82169050919050565b600061051e826104f3565b9050919050565b61052e81610513565b82525050565b60006020820190506105496000830184610525565b92915050565b6000819050919050565b6105628161054f565b82525050565b600060208201905061057d6000830184610559565b92915050565b7f4e487b7100000000000000000000000000000000000000000000000000000000600052601260045260246000fd5b60006105bd8261054f565b91506105c88361054f565b9250826105d8576105d7610583565b5b828206905092915050565b7f4e487b7100000000000000000000000000000000000000000000000000000000600052603260045260246000fd5b7f4e487b7100000000000000000000000000000000000000000000000000000000600052604160045260246000fd5b6000819050919050565b600061066661066161065c846104f3565b610641565b6104f3565b9050919050565b60006106788261064b565b9050919050565b600061068a8261066d565b9050919050565b61069a8161067f565b82525050565b60006040820190506106b56000830185610691565b6106c26020830184610559565b9392505050565b6000819050919050565b6106e46106df8261054f565b6106c9565b82525050565b60006106f682856106d3565b60208201915061070682846106d3565b602082019150819050939250505056fea2646970667358221220fd343b0e44d503a10626fff929a324b14e7a525d4b36237165d600b478a934c164736f6c63430008080033",
  "linkReferences": {},
  "deployedLinkReferences": {}
}